S31508000000907400201103000875510008712F00082C
S31508000010093A0008B1190008ED7700080000000049
S315080000200000000000000000000000005102000867
S315080000306D1D000800000000AD020008A971000847
S315080000404503000845030008450300084503000862
S315080000504503000845030008450300089D240008D9
S315080000609F240008A124000845030008A11C0008D5
S315080000704503000845030008450300084503000832
S31508000080C51C0008DB1C0008190500084503000804
S31508000090450300084503000845030008A324000893
S315080000A045030008450300084D720008450300088B
S315080000B045030008697200088972000845030008AC
S315080000C045030008450300084503000845030008E2
S315080000D045030008B57700084503000845030008EE
S315080000E045030008450300084503000845030008C2
S315080000F04503000845030008450300080000000002
S315080001000000000045030008450300080000000041
S315080001104503000845030008000000000000000031
S31508000120F11C00081D1D0008491D000845030008AC
S3150800013000000000000000000000000000000000B1
S3150800014000000000000000000000000000000000A1
S315080001504503000845030008450300084503000851
S315080001604503000845030008450300084503000841
S3150800017000F002F800F05CF80AA090E8000C82444F
S315080001808344AAF10107DA4501D100F051F8AFF22C
S31508000190090EBAE80F0013F0010F18BFFB1A43F057
S315080001A00103184700210100202101000A444FF0ED
S315080001B0000C10F8013B13F0070408BF10F8014BB8
S315080001C01D1108BF10F8015B641E05D010F8016BFD
S315080001D0641E01F8016BF9D113F0080F1EBF10F861
S315080001E0014BAD1C0C1B09D16D1E58BF01F801CB84
S315080001F0FAD505E014F8016B01F8016B6D1EF9D507
S315080002009142D6D37047000000230024002500261B
S31508000210103A28BF78C1FBD8520728BF30C148BF5B
S315080002200B6070471FB510F027F91FBD10B510BD3C
S3150800023000F040F91146FFF7F5FF0BF00FF800F054
S315080002405EF903B4FFF7F2FF03BC07F08BFB00006F
S315080002502C4B19680868B0E8F04F80F30988BFF39B
S315080002606F8F4FF0000080F3118870470000000080
S3150800027008480068006880F308884FF0000080F39B
S31508000280148862B661B6BFF34F8FBFF36F8F00DF76
S3150800029000BF00BF08ED00E0DFF80C00016841F47C
S315080002A070010160704700BF88ED00E0EFF3098038
S315080002B0BFF36F8F134B1A681EF0100F08BF20ED9F
S315080002C0108A20E9F04F106009B44FF00B0080F354
S315080002D01188BFF34F8FBFF36F8F0EF0E7FD4FF016
S315080002E0000080F3118809BC19680868B0E8F04F67
S315080002F01EF0100F08BFB0EC108A80F30988BFF310
S315080003006F8F704720000020EFF3058070470000CC
S3150800031041F20000C2F2000085460E48804740F2CE
S315080003200000C0F60000D0F800D00B4880470B4804
S315080003300047FEE7FEE7FEE7FEE7FEE7FEE7FEE725
S31508000340FEE7FEE7FEE7000005480649064A074BB2
S315080003507047000071970008DD71000871010008F8
S315080003609064002090740020906C0020906C00200F
S315080003707047B2F120030AD5C2F1200301FA02F14F
S3150800038020FA03F300FA02F041EA0301704700FA83
S3150800039003F14FF000007047B2F120030AD5C2F10D
S315080003A0200320FA02F001FA03F341FA02F140EAC7
S315080003B00300704741FA03F04FEAE1717047032AD8
S315080003C040F2308010F0030C00F0158011F8013B64
S315080003D0BCF1020F624498BF11F801CB00F8013B4B
S315080003E038BF11F8013BA2F1040298BF00F801CB0F
S315080003F038BF00F8013B11F0030300F02580083AE6
S31508000400C0F0088051F8043B083A51F804CBA0E83C
S315080004100810F5E7121D5CBF51F8043B40F8043B91
S31508000420AFF30080D20724BF11F8013B11F801CBC6
S3150800043048BF11F8012B24BF00F8013B00F801CB97
S3150800044048BF00F8012B704710B5203AC0F00B8062
S31508000450B1E81850203AA0E81850B1E81850A0E8BA
S315080004601850BFF4F5AF5FEA027C24BFB1E8185014
S31508000470A0E8185044BF18C918C0BDE810405FEA84
S31508000480827C24BF51F8043B40F8043B08BF704700
S31508000490D20728BF31F8023B48BF11F8012B28BF05
S315080004A020F8023B48BF00F8012B70477047704799
S315080004B070477047754600F02BF8AE46050069464A
S315080004C0534620F00700854618B020B5FFF73CFFD5
S315080004D0BDE820404FF000064FF000074FF0000837
S315080004E04FF0000B21F00701AC46ACE8C009ACE8B8
S315080004F0C009ACE8C009ACE8C0098D46704710B51C
S315080005000446AFF300802046BDE81040FFF799BEC9
S31508000510004870473064002010B50421084807F0E9
S3150800052076FA18B10421064807F06EFA0221044843
S3150800053007F06DFA18B10221014807F065FA10BDF7
S315080005400024014000B585B001214FF4A01008F041
S31508000550D3FB002211460B200AF0B2FF174809F018
S31508000560A5F8684609F037F83020ADF80A000020EB
S31508000570ADF808001248019001208DF80F008DF89B
S315080005800D001048009001208DF80E0000208DF80F
S315080005900C0002208DF8110001208DF81000694624
S315080005A0064809F04BF801220221044809F074F8BC
S315080005B00121024809F00AF805B000BD080002400A
S315080005C0045700204C24014008B50121264808F0AC
S315080005D093FB022008F0EEFA002007F001FA6846BD
S315080005E007F0D8F900208DF8020003208DF80300E3
S315080005F001208DF801008DF8000069461B4807F0B8
S31508000600B3F9072301221146184807F008FA072309
S3150800061002221146154807F002FA0723032211465B
S31508000620124807F0FCF901220721104807F0C1FA21
S3150800063001210E4807F0DEF901210C4807F0DFF921
S315080006400A4807F0AEF900BF084807F0B0F90028D5
S31508000650FAD1064807F0B4F900BF044807F0B6F91E
S315080006600028FAD108BD000009001800002401403E
S315080006701CB501211B4808F03FFB68460AF08CFBB5
S3150800068003208DF806000220009004208DF805004E
S31508000690694615480AF08BFB0121124808F02CFB25
S315080006A068460AF079FB03208DF8060004200090BE
S315080006B08DF8050069460C480AF079FB01210948BE
S315080006C008F01AFB68460AF067FB03208DF8060057
S315080006D00820009004208DF80500694602480AF0B3
S315080006E066FB1CBD02001800000801407FB5002506
S315080006F000264FF4C3740121494808F0FDFA6846FC
S315080007000AF04AFB00208DF806004FF4806000903E
S3150800071018208DF80500694642480AF048FB012171
S315080007203F4808F0E9FA68460AF036FB01208DF8DA
S31508000730070000208DF8040010208DF8060000023E
S31508000740009018208DF80500694636480AF02FFBF8
S315080007500121334808F0D0FA0120009008208DF8CE
S31508000760060001208DF8070000208DF804001820E7
S315080007708DF8050069462B480AF019FB012129481E
S315080007800AF006FB284800682849B0FBF1F0401E2D
S3150800079085B225480168681CB1FBF0F02449098830
S315080007A0B0FBF1F0401E84B2204604EBD0714E1027
S315080007B001214FF4E01008F09FFA2A4621464FF02F
S315080007C080400CF03DFA00214FF080400CF059FAB9
S315080007D000214FF080400CF04FFA02A80CF063FBA2
S315080007E006208DF8080000208DF8090001208DF8F4
S315080007F00B008DF80D0002AA002180070CF083FA81
S31508000800324600214FF080400CF022FA01220021E6
S3150800081090070CF057FA012188070CF04DFB7FBDB5
S3150800082002001800000801400000002040420F00A6
S31508000830980000202DE9F84F07468A469146BAF1F6
S31508000840000F07D1C94807600020C9490880C9496F
S31508000850088089E1C5480068874201D2C348076015
S31508000860C2480068381A0A28F3D9C0480760B9F19F
S31508000870010F06DA2120BE4908800020BD490880FC
S3150800088002E0BC49A1F80090B9480088B94909882E
S315080008908842DED0B74800881E2802DB1E20B449ED
S315080008A00880B448008818B9B2480088B04908805A
S315080008B0AF480088AF49098888420DDDAC480088F2
S315080008C0012803D10020AA49088015E0A848008815
S315080008D0401EA74908800FE0A5480088A549098851
S315080008E0884205DAA2480088401CA149088003E02E
S315080008F0A04800889E49088011241026A046002595
S3150800090029E005EB85004044C4B20023282231467D
S31508000910204608F07FFD721CD1B2621CD0B20023BB
S31508000920262208F077FDA11CC8B2002328223146EA
S3150800093008F070FDE11CC8B200232822314608F0F1
S3150800094069FD721CD1B2221DD0B20023262208F0FE
S3150800095061FD681CC5B2032DD3DB22241026A046F0
S31508000960002559E005EB450008EB4000C4B2824873
S31508000970408AA84227D1B21CD1B2621CD0B2012348
S31508000980242208F047FD721CD1B2A21CD0B2012362
S31508000990262208F03FFDE11CC8B201232822314671
S315080009A008F038FD721CD1B2221DD0B201232622CE
S315080009B008F030FDB21CD1B2621DD0B20123242248
S315080009C008F028FD26E0B21CD1B2621CD0B2002382
S315080009D0242208F01FFD721CD1B2A21CD0B200233B
S315080009E0262208F017FDE11CC8B20023282231464A
S315080009F008F010FD721CD1B2221DD0B200232622A7
S31508000A0008F008FDB21CD1B2621DD0B20023242220
S31508000A1008F000FD681CC5B2072DA3DB4E2410267E
S31508000A20A04600258EE008EB8500C4B25248418AEC
S31508000A30E81D814242D1042D28DA05EB45034FF023
S31508000A40260CACEB4303DAB2731CD9B2631CD8B2DA
S31508000A50012308F0DFFC05EB45012823A3EB410140
S31508000A60CAB2A11CC8B20123314608F0D3FC05EB73
S31508000A7045034FF0260CACEB4303DAB2731CD9B22C
S31508000A80E31CD8B2012308F0C5FC59E0721CD1B2A8
S31508000A90621CD0B20123112208F0BCFCA11CC8B20A
S31508000AA001231322314608F0B5FC721CD1B2E21CB0
S31508000AB0D0B20123112208F0ADFC41E0042D28DA5A
S31508000AC005EB45034FF0260CACEB4303DAB2731C77
S31508000AD0D9B2631CD8B2002308F09CFC05EB45018B
S31508000AE02823A3EB4101CAB2A11CC8B20023314690
S31508000AF008F090FC05EB45034FF0260CACEB4303DE
S31508000B00DAB2731CD9B2E31CD8B2002308F082FC0F
S31508000B1016E0721CD1B2621CD0B20023112208F072
S31508000B2079FCA11CC8B200231322314608F072FCD6
S31508000B30721CD1B2E21CD0B20023112208F06AFC62
S31508000B40681CC5B20F2DFFF66EAF012018230BA245
S31508000B50282100905C2005F0CEF800231A46194695
S31508000B60084800680EF08AFBBDE8F88F240E0020BE
S31508000B70280E00202A0E00206061002041504558AA
S31508000B8000000000A00E002007B58AB00B9840B9F7
S31508000B90F7490A9808600020F6490880F64908804F
S31508000BA0F2E3F3490A980968884202D2F0490A989A
S31508000BB00860EF490A980968401A0A28F0D9EC49EA
S31508000BC00A9808600C98012806DA2120E949088065
S31508000BD00020E949088002E0E7490C980880E548C2
S31508000BE00088E5490988884271D0E34800881E28AC
S31508000BF002DB1E20DF490880DF48008818B9DE4876
S31508000C000088DC490880DB480088DB490988884277
S31508000C100DDDD8480088012803D10020D549088071
S31508000C2015E0D4480088401ED24908800FE0D14814
S31508000C300088D1490988884205DACE480088401CD0
S31508000C40CC49088003E0CC480088CA49088021209E
S31508000C500790102006900798059000200990A8E0B4
S31508000C60099800EB800105980844C0B20790C1486E
S31508000C70008868BB0698401CC0B204900798401CC0
S31508000C80C0B2012326220390049908F0C3FB0798F3
S31508000C90801CC0B2012328220490069908F0BAFBEA
S31508000CA00798C01CC0B2012328220490069908F0B0
S31508000CB0B1FB0698401CC0B204900798001DC0B24C
S31508000CC0012326220390049908F0A4FB6DE0EAE3C9
S31508000CD0FFE7A8480088192832DD00232822DDE925
S31508000CE0061008F097FB0698401CC0B204900798B7
S31508000CF0401CC0B2002326220390049908F08AFB00
S31508000D000798801CC0B2002328220490069908F090
S31508000D1081FB0798C01CC0B20023282204900699BC
S31508000D2008F078FB0698401CC0B204900798001D8E
S31508000D30C0B2002326220390049908F06BFB34E026
S31508000D408C4909880998884201DB012000E00020C7
S31508000D5008900698401CC0B204900798401CC0B280
S31508000D6003902622089B049908F054FB0798801CD8
S31508000D70C0B204902822089B069908F04BFB0798F6
S31508000D80C01CC0B204902822089B069908F042FBB2
S31508000D900698401CC0B204900798001DC0B2039084
S31508000DA02622089B049908F035FB0998401CC0B216
S31508000DB0099009980328FFF653AF322007901020B0
S31508000DC00690079805900020099024E1099800EB01
S31508000DD04001059800EB4100C0B2079065480088BD
S31508000DE0E8BB0698801CC0B204900798401CC0B2A5
S31508000DF0012324220390049908F00CFB0698401C52
S31508000E00C0B204900798801CC0B201232622039022
S31508000E10049908F0FFFA0798C01CC0B201232822DB
S31508000E200490069908F0F6FA0698401CC0B2049099
S31508000E300798001DC0B2012326220390049908F0E2
S31508000E40E9FA0698801CC0B204900798401DC0B203
S31508000E50012324220390049908F0DCFAD7E0FFE77F
S31508000E604448008819287DDD4448418A099881420A
S31508000E703DD10698801CC0B204900798401CC0B2A9
S31508000E80012324220390049908F0C4FA0698401C0A
S31508000E90C0B204900798801CC0B201232622039092
S31508000EA0049908F0B7FA0798C01CC0B20123282293
S31508000EB00490069908F0AEFA0698401CC0B2049051
S31508000EC00798001DC0B2012326220390049908F052
S31508000ED0A1FA0698801CC0B204900798401DC0B2BB
S31508000EE0012324220390049908F094FA8FE00698C7
S31508000EF0801CC0B204900798401CC0B2002324226C
S31508000F000390049908F086FA0698401CC0B204902B
S31508000F100798801CC0B2002326220390049908F083
S31508000F2079FA0798C01CC0B20023282204900699B3
S31508000F3008F070FA0698401CC0B204900798001D85
S31508000F40C0B2002326220390049908F063FA069893
S31508000F50801CC0B204900798401DC0B2002324220A
S31508000F60039000E00CE0049908F054FA4FE0000002
S31508000F70140E00201E0E0020200E002060610020A6
S31508000F800998C01CFE490988884201DB012000E057
S31508000F90002008900698801CC0B204900798401C50
S31508000FA0C0B203902422089B049908F033FA0698E5
S31508000FB0401CC0B204900798801CC0B20390262239
S31508000FC0089B049908F026FA0798C01CC0B204903A
S31508000FD02822089B069908F01DFA0698401CC0B2FC
S31508000FE004900798001DC0B203902622089B049916
S31508000FF008F010FA0698801CC0B204900798401DA5
S31508001000C0B203902422089B049908F003FA0998B1
S31508001010401CC0B2099009980728FFF6D7AE5E2093
S315080010200790102006900798059000200990B4E1D3
S315080010300599099801EB8000C0B20790D04800884E
S31508001040002862D1099804283BDA099800EB400188
S315080010502620A0EB4100C0B204900698401CC0B2FE
S3150800106003900798401CC0B201230290DDE90312E1
S3150800107008F0D0F9099800EB40002821A1EB4000C0
S31508001080C0B204900798801CC0B201230390049A4A
S31508001090069908F0BFF9099800EB40002621A1EB54
S315080010A04000C0B204900698401CC0B2039007984E
S315080010B0C01CC0B201230290DDE9031208F0AAF9A8
S315080010C067E10698401CC0B204900798401CC0B25D
S315080010D0012311220390049908F09CF90798801CB3
S315080010E0C0B2012313220490069908F093F90698D2
S315080010F0401CC0B204900798C01CC0B2012311223C
S315080011000390049908F086F943E19D480088192858
S315080011107DDD9C48418A0998C01D814262D10998A3
S3150800112004283BDA099800EB40002621A1EB400091
S31508001130C0B204900698401CC0B203900798401CA1
S31508001140C0B201230290DDE9031208F063F9099899
S3150800115000EB40002821A1EB4000C0B2049007989C
S31508001160801CC0B201230390049A069908F052F92C
S31508001170099800EB40002621A1EB4000C0B204907C
S315080011800698401CC0B203900798C01CC0B2012341
S315080011900290DDE9031208F03DF9FAE00698401CD2
S315080011A0C0B204900798401CC0B2012311220390D4
S315080011B0049908F02FF90798801CC0B2012313225E
S315080011C00490069908F026F90698401CC0B20490C7
S315080011D00798C01CC0B2012311220390049908F095
S315080011E019F9D6E0099804283DDA099800EB400079
S315080011F02621A1EB4000C0B204900698401CC0B25C
S3150800120003900798401CC0B20023029000E04EE00D
S31508001210DDE9031208F0FEF8099800EB40002821E2
S31508001220A1EB4000C0B204900798801CC0B200230E
S315080012300390049A069908F0EDF8099800EB400027
S315080012402621A1EB4000C0B204900698401CC0B20B
S3150800125003900798C01CC0B200230290DDE9031270
S3150800126008F0D8F895E00698401CC0B20490079894
S31508001270401CC0B2002311220390049908F0CAF852
S315080012800798801CC0B2002313220490069908F020
S31508001290C1F80698401CC0B204900798C01CC0B29A
S315080012A0002311220390049908F0B4F871E0099814
S315080012B00B3033490988884201DB012000E0002011
S315080012C00890099804283BDA099800EB4000262183
S315080012D0A1EB4000C0B204900698401CC0B203902F
S315080012E00798401CC0B20290089BDDE9031208F07B
S315080012F091F8099800EB40002821A1EB4000C0B204
S3150800130004900798801CC0B20390089B049A06991B
S3150800131008F080F8099800EB40002621A1EB400070
S31508001320C0B204900698401CC0B203900798C01C2F
S31508001330C0B20290089BDDE9031208F06BF828E0BA
S315080013400698401CC0B204900798401CC0B203908F
S315080013501122089B049908F05DF80798801CC0B212
S3150800136004901322089B069908F054F80698401C26
S31508001370C0B204900798C01CC0B20390112204E0C2
S315080013801E0E002060610020AEE0089B049908F05C
S3150800139041F80998401CC0B2099009980F28FFF631
S315080013A047AE0C98002877DB0C98032808DA01204A
S315080013B01823C8A2282100906A2004F09CFC6BE040
S315080013C00C9819280EDDC5480088012864D1182311
S315080013D0C3A2282100906A2004F08DFC0020BF4992
S315080013E0088059E0C048408AC01CC049098888421C
S315080013F002DD0020059007E0BB48807CBB490978E0
S31508001400081AC01EC0B205900120182320222821E0
S3150800141000906A2004F01EFB05980A282ADAB248CA
S31508001420408AC01CB1490988884210DD012018236A
S315080014302D2228210090762004F00CFB0120182389
S315080014402D2228210090822004F004FB1CE00120B4
S315080014501823202228210090762004F0FBFA012187
S3150800146018200B46CDE9000128218220059A04F0B0
S315080014708FFB09E0012118200223CDE9000128216C
S315080014807620059A04F084FB0120182320222821BF
S3150800149000908E2004F0DEFA00231A461946944876
S315080014A000680DF0EBFE93480068401C91490860FF
S315080014B008460068322817D9002008608E48008838
S315080014C008B9012000E000208B4908800C98002804
S315080014D014DA0846008840B90120182387A2282173
S315080014E000906A2004F007FCF1E0012018237CA292
S315080014F0282100906A2004F0FEFBE8E07B4800887B
S315080015001A28F1DA7848408AC01C7849098888423E
S31508001510EAD07548408A072853DA7348807C00EB7E
S315080015204000322101EB4000C0B20790102006901F
S315080015307148007804900698801C03900798401C10
S31508001540C0B202902422DDE9031307F063FF6A485C
S31508001550007804900698401C03900798801CC0B237
S3150800156002902622DDE9031307F054FF624800784B
S3150800157004900798C01CC0B203902822049B0699C1
S3150800158007F048FF5C48007804900698401C0390D2
S315080015900798001DC0B202902622DDE9031307F062
S315080015A039FF5548007804900698801C03900798E0
S315080015B0401DC0B202902422DDE9031307F02AFF7A
S315080015C085E04948408A0B284DDA4748807C442103
S315080015D001EB8000801EC0B2079010200690464896
S315080015E0007804904048807C00EB40005021A1EB35
S315080015F04000C0B203900698401C02900798401C11
S31508001600C0B2019002A90EC907F004FF3A48007853
S3150800161004903548807C00EB40005221A1EB400045
S31508001620C0B203900798801CC0B20290DDE903237C
S31508001630069907F0EFFE3048007804902A48807C27
S3150800164000EB40005021A1EB4000C0B20390069881
S31508001650401C02900798C01CC0B2019002A90EC98E
S3150800166007F0D8FE33E02048807C442101EB800057
S31508001670801EC0B20790102006901F48007804907C
S315080016800698401C03900798401CC0B2029011228D
S31508001690DDE9031307F0BEFE1748007804900798A3
S315080016A0801CC0B203901322049B069907F0B2FE71
S315080016B01148007804900698401C03900798C01CAF
S315080016C0C0B202901122DDE9031307F0A3FE0DB0A4
S315080016D000BD00004F56455200000000220E0020B3
S315080016E04150455800000000606100201E0E002091
S315080016F0A00E0020180E00201C0E002020202020FE
S315080017000000000070B504460025092C01DD2846B6
S3150800171070BD0A2C7DD2DFE804F0051E9494943D32
S31508001720395F94850BF022F94A48007858B10020B1
S315080017304849087003F0CCFC05200DF07FF800211D
S3150800174045480BF0A3FA002301224FF4FA7110461C
S3150800175001F0AAFD7BE03F48007860B9002003F05D
S31508001760B7FC01213C480BF091FA05200DF066F80C
S315080017700120384908700BF093F84FF6FF730122E1
S315080017804FF4FA71104601F08FFD60E033480BF014
S31508001790F0FC5CE00CF0FCFE4FF4FA624FF4967134
S315080017A0002001F08BFE05460CF004FF0BF0DEF876
S315080017B000202849087003F08BFC05200DF03EF840
S315080017C0002125480BF062FA002301224FF4FA7132
S315080017D0104601F069FD3AE00BF0C8F81D4800789C
S315080017E058B100201B49087003F072FC05200DF063
S315080017F025F8002118480BF049FA18480BF0B9FCEF
S31508001800002003F065FC012113480BF03FFA052080
S3150800181000E016E00DF012F801200E4908700BF0F2
S315080018203FF814E00BF0A2F800200A49087003F00C
S315080018304FFC05200DF002F802F054FF02F070FF8D
S3150800184005E00BF093F800200249087000BF00BFBE
S3150800185028465DE7580E0020000400404059002045
S3150800186070B504460D4635B92346012202212820C3
S3150800187006F0F8FA2CE040F6B830844202DA154948
S3150800188008801EE040F67A50844204DA40F6B83002
S315080018901049088015E040F64260844204DA40F6B2
S315080018A048500C4908800CE040F66E70844204DA11
S315080018B04FF461600749088003E040F63C7005492B
S315080018C008800448038801220221282006F0CAFA63
S315080018D070BD00004C0E002070B505460C46002C65
S315080018E05AD0B5FBF4F004FB1050002854D109F087
S315080018F031FA2A4908800846008840F6B8318842F5
S3150800190026DA274800682044254908600846006802
S31508001910642833D923480078102809D01020214993
S31508001920087000231A46204800680DF0A7FC25E039
S315080019301B48006841F2883188421FD9112019498D
S31508001940087000231A46184800680DF097FC15E041
S3150800195013480068A0420CD911480068642802D9C7
S3150800196064200F4908600E480068001B0C4908608F
S3150800197004E000200B490870094908604FF4FA7022
S31508001980B5FBF0F100FB115030B900231A460349A4
S31508001990064800680DF072FC70BD0000600E00205D
S315080019A0640E0020620E0020900E00209C0E00207F
S315080019B000BFFEE710B501221146002000F0D8FD51
S315080019C001221146104600F0D3FD012211460220DD
S315080019D000F0CEFD01221146032000F0C9FD10BD1E
S315080019E02DE9FF41064600270025002000900190BA
S315080019F0029003900024ACE004EB44005D4901EB3F
S31508001A008000807A00286FD0204601F04BFA002823
S31508001A1054D104EB4400574901EB80004068304438
S31508001A2004EB4401534A02EB8101486004EB44008D
S31508001A30114601EB80004068B0F57A7F78D900201E
S31508001A4004EB440102EB8101486004EB44001146B3
S31508001A5001EB8000C07A00286AD004EB440001EB51
S31508001A608000007A401C04EB440102EB81010872F5
S31508001A7004EB4400114601EB8000007AFA2805DDE4
S31508001A80FA2004EB440102EB8101087204EB4400DE
S31508001A90384901EB8000007A012807DD062004EBAF
S31508001AA04401344A02EB8101487041E0022004EB0C
S31508001AB04401304A02EB8101487039E004EB4400E6
S31508001AC02C4901EB8000007A00280EDD04EB440067
S31508001AD001EB8000C07AF8B1052004EB4401254AE1
S31508001AE002EB8101487017E031E004EB440021491C
S31508001AF001EB80004068642807D9012004EB440103
S31508001B001C4A02EB8101487006E0002004EB440100
S31508001B10184A02EB81014870002004EB4401154A7B
S31508001B2002EB8101486004EB440102EB8101087273
S31508001B3004EB44000F4901EB8000407800F00F00E9
S31508001B40A10088404DF824005DF824000543601C78
S31508001B50C4B2042CFFF650AF07480068A84205D067
S31508001B6005480560006801F061FB0746384604B081
S31508001B70BDE8F08130580020AC0000207FB5002574
S31508001B804FF4C374FA260121324807F0B5F8B01DA0
S31508001B90029008208DF80E0001208DF80F00002015
S31508001BA08DF80C0018208DF80D0002A92A4809F0B6
S31508001BB0FEF8B11D284809F0EBF8284800682849BE
S31508001BC0B0FBF1F0401E85B224480168681CB1FBE1
S31508001BD0F0F024490988B0FBF1F0401E84B2204693
S31508001BE004EBD0714E1001211A48113007F084F821
S31508001BF02A4621461C480BF023F800211A480BF008
S31508001C0040F8002118480BF037F868460BF04BF9F6
S31508001C1007208DF8000000208DF8010001208DF8BE
S31508001C2003008DF805006A4600210F480BF06BF893
S31508001C30324600210C480BF00BF8012200210A4815
S31508001C400BF040F8012108480BF036F9002000F0A7
S31508001C500DF87FBD03001800000C014000000020AD
S31508001C6040420F00A80000200050014010B504466D
S31508001C7044B9002108480BF009F80021074807F085
S31508001C803BF807E00121054807F036F8012102482C
S31508001C900AF0FCFF10BD00000050014014001800B7
S31508001CA010B5022007F0B4FC40B1022007F0A0FCF2
S31508001CB00348007810B901200149087010BD0000DA
S31508001CC08000002010B54FF4001007F0A1FC18B1F1
S31508001CD04FF4001007F08CFC10BD10B54FF00070E3
S31508001CE007F096FC18B14FF0007007F081FC10BDA4
S31508001CF010B5202007F08CFC48B101200449087073
S31508001D00044807F075FC0021034807F05FFC10BD86
S31508001D10690D0020020000100804024010B50748AB
S31508001D2007F076FC48B1012005490870034807F01A
S31508001D305FFC0021034807F049FC10BD2000001095
S31508001D40300C00201C04024010B5064807F060FC61
S31508001D5030B1044807F04CFC0021034807F036FC74
S31508001D6010BD000000020010300402407047000059
S31508001D700246002019B1084B1B68934202D9064B4C
S31508001D801A6007E0044B1B68D31A8B4202D9024B30
S31508001D901A60012070470000F00D002010B508F009
S31508001DA0A1FF18B100200349888202E001200149F9
S31508001DB0888210BD6061002010B54FF4FA7007F0F4
S31508001DC0C3FA07F01DFB0120FFF750FF962007F026
S31508001DD0BBFA0020FFF74AFF10BD00002DE9FC41C1
S31508001DE0074612250826002409E03019C01CC1B28E
S31508001DF001230F22284607F021FB601CC4B2022CDF
S31508001E00F3DB24250826002418E03019401CC1B24B
S31508001E100122284603F05AFC3219521CD1B26A1C18
S31508001E20D0B2012203F052FC3019C01CC1B2012302
S31508001E302822284607F002FB601CC4B2022CE4DB09
S31508001E4001200821CDE90010A91EC8B201230022ED
S31508001E50114603F09DFE4448408A0D2190FBF1F29D
S31508001E6001FB12004049488205F11301C8B201235B
S31508001E701A463C2107F0E2FA05F11201C8B201231D
S31508001E8003223D2107F0DAFA05F11101C8B2012350
S31508001E9005223E2107F0D2FA4F25082600243CE009
S31508001EA03019401CC1B20122284603F00FFC321932
S31508001EB0521CD1B26A1CD0B2012203F007FC3219B7
S31508001EC0521CD1B205F11902D0B2012203F0FEFB71
S31508001ED03219521CD1B205F11A02D0B2012203F00E
S31508001EE0F5FB3219521CD1B205F13502D0B20122E6
S31508001EF003F0ECFB3219521CD1B205F13602D0B20E
S31508001F00012203F0E3FB3019C01CC1B201233C22B5
S31508001F10284607F093FA601CC4B2022CC0DB0120E5
S31508001F200821CDE90010A91EC8B201231A460021CE
S31508001F3003F02EFE01200821CDE9001005F1170156
S31508001F40C8B201230222002103F022FE0120082143
S31508001F50CDE9001005F13301C8B20123032200219F
S31508001F6003F016FEBDE8FC81606100202DE9FC4106
S31508001F70074622250826002409E03019C01CC1B2EC
S31508001F8001230F22284607F059FA601CC4B2022C16
S31508001F90F3DB34250826002418E03019401CC1B2AA
S31508001FA00122284603F092FB3219521CD1B26A1C50
S31508001FB0D0B2012203F08AFB3019C01CC1B201233A
S31508001FC02822284607F03AFA601CC4B2022CE4DB41
S31508001FD001200821CDE90010A91EC8B2012300225C
S31508001FE0114603F0D5FD4448408A0D2190FBF1F2D5
S31508001FF001FB12004049488205F11301C8B20123CA
S315080020001A463C2107F01AFA05F11201C8B2012353
S3150800201003223D2107F012FA05F11101C8B2012386
S3150800202005223E2107F00AFA5F25082600243CE02F
S315080020303019401CC1B20122284603F047FB321969
S31508002040521CD1B26A1CD0B2012203F03FFB3219EE
S31508002050521CD1B205F11902D0B2012203F036FBA7
S315080020603219521CD1B205F11A02D0B2012203F07C
S315080020702DFB3219521CD1B205F13502D0B201221C
S3150800208003F024FB3219521CD1B205F13602D0B244
S31508002090012203F01BFB3019C01CC1B201233C22EC
S315080020A0284607F0CBF9601CC4B2022CC0DB01201D
S315080020B00821CDE90010A91EC8B201231A4600213D
S315080020C003F066FD01200821CDE9001005F117018E
S315080020D0C8B201230222002103F05AFD012008217B
S315080020E0CDE9001005F13301C8B20123032200210E
S315080020F003F04EFDBDE8FC81606100207CB5054615
S3150800210000221146104600F098F82C48408800EB4B
S31508002110C0002B4901EB4000408850B92748408849
S3150800212000EBC00001EB4000008A264931F9104057
S315080021300AE02248408800EBC000214901EB400034
S315080021408088204931F91040B4F57A7F1AD20120E7
S315080021501023202211460090002003F07BFC01206A
S31508002160102103232246CDE900102021042003F084
S315080021700FFD012010232022114600901C2003F099
S3150800218069FC09E00120102104232246CDE900104C
S315080021902021002003F0FCFC012010230AA2302194
S315080021A00090042003F0A7FD0520FFF7DFFE0022BC
S315080021B011461046FEF7E8FC7CBD00006061002071
S315080021C07A610020960D002072706D002DE9FC41A1
S315080021D004460E461546284605F0E6FA0A2190FBFF
S315080021E0F1F087B20120182103463A46CDE90010DE
S315080021F03146204603F0CCFC012004F10C01009086
S31508002200C8B218232E22314603F024FC284605F0CE
S31508002210CBFA0A2190FBF1F201FB120087B20120EA
S315080022201821CDE9001004F11401C8B201233A4679
S31508002230314603F0ADFCBDE8FC8170B504460D4699
S315080022401646012320222946204607F0F7F805F10D
S315080022501F00C1B201232022204607F0EFF8012310
S3150800226020222946204607F0D5F804F11F01C8B2F6
S3150800227001232022294607F0CDF870BD2DE9FC4739
S3150800228080468946924645464E460024B5E0C4F146
S315080022900500C7B2032F56DD01200821EA1E04EB0C
S315080022A0C40303EB04131A44CDE90010D0B2321D5F
S315080022B0D1B201233A4603F06BFC06F10902D1B20A
S315080022C004EBC40202EB0413EA1C1A44D0B201223E
S315080022D003F0FCF906F10902D1B204EBC40202EBE1
S315080022E004132A1D1A44D0B2012203F0EFF906F1AD
S315080022F00A02D1B204EBC40202EB0413EA1C1A4424
S31508002300D0B2012203F0E2F906F10A02D1B204EBD7
S31508002310C40202EB04132A1D1A44D0B2012203F0A8
S31508002320D5F901200821321DCDE90010D1B204EB00
S31508002330C40202EB04136A1D1A44D0B20123002218
S3150800234003F026FC57E001200821321DCDE90010D4
S31508002350D1B204EBC40202EB04122A44D0B2012320
S315080023603A4603F015FC06F10902D1B204EBC402A1
S3150800237002EB0413EA1D1A44D0B2012203F0A6F9AF
S3150800238006F10902D1B204EBC40202EB041305F10B
S3150800239008021A44D0B2012203F098F906F10A029B
S315080023A0D1B204EBC40202EB0413EA1D1A44D0B2FC
S315080023B0012203F08BF906F10A02D1B204EBC4023A
S315080023C002EB041305F108021A44D0B2012203F005
S315080023D07DF901200821321DCDE90010D1B204EBA8
S315080023E0C40202EB041305F109021A44D0B2012310
S315080023F0002203F0CDFB601CC4B2052CFFF647AFE4
S31508002400454609F10D00C6B2002443E0002735E031
S31508002410022F18DA3219D1B207EBC70202EB0713FB
S31508002420EA1C1A44D0B2012203F050F93219D1B28B
S3150800243007EBC70202EB07132A1D1A44D0B2012282
S3150800244003F044F918E03219D1B207EBC70202EBE0
S315080024500713EA1D1A44D0B2012203F037F93219DC
S31508002460D1B207EBC70202EB071305F108021A44BB
S31508002470D0B2012203F02AF9781CC7B2052FC7DBB0
S315080024803019401CC1B201237822284606F0D6FF2F
S31508002490601CC4B2022CB9DBBDE8FC8770477047E4
S315080024A0704770471CB504469CB901212C4806F0B4
S315080024B023FC684608F070FC00208DF80600102002
S315080024C0009018208DF805006946264808F06FFC2C
S315080024D044E0012C14D101212148401C06F00CFCD3
S315080024E0684608F059FC00208DF80600A003009005
S315080024F018208DF8050069461B4808F058FC2DE0A1
S31508002500022C14D101211648401E06F0F5FB684638
S3150800251008F042FC00208DF80600A0020090182062
S315080025208DF805006946114808F041FC16E0032CB1
S3150800253014D101210A48401E06F0DEFB684608F061
S315080025402BFC00208DF806004FF4807000901820B0
S315080025508DF805006946054808F029FC1CBD0000F1
S3150800256003001800000C014000100140000801405B
S315080025702DE9F04104460E461746042C01DB0025DA
S315080025800EE02046FFF78EFF04EB4400064901EBF8
S315080025908000867204EB440001EB8000C7720125B7
S315080025A02846BDE8F0810000305800202DE9F047A4
S315080025B006460F4690461D4656480068854201D293
S315080025C05448056053480068281AB0F5FA7F72D94E
S315080025D0504805605048007808B9012000E00020FE
S315080025E04D4908704D48408800EBC0004C4901EB46
S315080025F040004088032812D108EB480040004749AC
S31508002600498801EBC101464A02EB41010989454A5D
S3150800261032F8111090FBF1F04349088011E008EBFD
S31508002620480040003D49498801EBC1013C4A02EB9C
S315080026304101C9883B4A32F8111090FBF1F03A493A
S31508002640088039480088062802DD062036490880B1
S3150800265000240AE0FA1C2244D1B2F21CD0B20023AC
S315080026601A2206F0EBFE601CC4B21A2CF2DB002418
S3150800267040E02D48008805281EDD3B190F33DFF89A
S31508002680A8C0BCF800C04FF0020909FB1C33D9B238
S31508002690254B1B789B009B1CDAB206F10F03DFF86B
S315080026A088C0BCF800C009FB1C33D8B21A4B1B788B
S315080026B006F0C4FE1CE02AE03B190F33DFF868C0B9
S315080026C0BCF800C04FF0020909FB1C33D9B2164BFF
S315080026D01B789B009B1CDAB206F10F03DFF848C093
S315080026E0BCF800C009FB1C33D8B2012306F0A6FECD
S315080026F0601CC4B20C4800888000801CA042B8DC6C
S3150800270000231A461946094800680CF0B7FDBDE8CB
S31508002710F0870000300E0020340E00206061002093
S315080027207A6100206C0D00202C0E0020A00E0020DF
S3150800273038B504460D4600200090FE480068A842B9
S3150800274001D9FC480560FC48808A01287ED1FA48F0
S3150800275040880A287BDA1B2C7ADA002C0CDAF74830
S31508002760007828B1F448408910B10020FEF7CAFF66
S315080027701420F3490870F5E1EF48408AC01CA042CE
S3150800278067DBED484089012846D1EE4800780428E1
S3150800279054D1ED480078EB4908700020FEF7B2FFE7
S315080027A0E8480078A8B9E848C068E749096949428D
S315080027B0884203DD0220E449087019E0E248C0684F
S315080027C0E14909694942884212DA0120DE4908705E
S315080027D00EE0DC480078012803D10220DA490870A7
S315080027E006E0D8480078022802D10120D6490870A8
S315080027F00620FEF787FFD1480078F8B9CE488089C9
S3150800280030B1CF480078142802D01420CC4908707B
S315080028100120FEF777FF11E0C748408902280DD14D
S31508002820C8480078042809D1C7480078C5490870FF
S31508002830C248007810B10020FEF764FFBE48408900
S3150800284058B9BD48808940B9BB4803E0DEE260E27A
S315080028509DE12EE0C08900288DD0B8480078002870
S3150800286089D0B948007878B9B748C069B749B1F985
S315080028700410884207DDB548B0F90400B249C861BA
S315080028800620FEF73FFF6DE1AF484068AF49B1F952
S3150800289004108842F7DDAD48B0F90400AA4948603B
S315080028A0AA48B0F90400404288600620FEF72AFFCD
S315080028B058E1A148408AC01DA04235DB9F480078F0
S315080028C00028E0D09C48408930B99B48808918B9CF
S315080028D09948C0890028D6D09B48007878B99A4884
S315080028E0C0699A49B1F906108842CCDD9748B0F913
S315080028F006009549C8610620FEF704FF32E19248B2
S3150800290040689249B1F906108842BCDD8F48B0F993
S3150800291006008D4948608D48B0F906004042886037
S315080029200620FEF7EFFE1DE18348408A0830A042E4
S3150800293035DB824800780028A5D07F48408930B921
S315080029407D48808918B97C48C08900289BD07E4874
S31508002950007878B97C48C0697C49B1F90810884282
S3150800296091DD7A48B0F908007749C8610620FEF774
S31508002970C9FEF7E0744840687449B1F908108842FE
S3150800298096DD7248B0F908006F4948606F48B0F99B
S315080029900800404288600620FEF7B4FEE2E066487A
S315080029A0408A0930A04243DB66480078042809D0EB
S315080029B06448007864490870042062490870062053
S315080029C0FEF7A0FE5D480078002897D05A4840894F
S315080029D030B95948808918B95748C089002811D094
S315080029E05948007878B95848C0695849B1F90A1061
S315080029F0884207DD5548B0F90A005349C8610620E0
S31508002A00FEF780FEAEE0504840685049B1F90A101A
S31508002A1088420CDD4D48B0F90A004B4948604B48DE
S31508002A20B0F90A00404288600620FEF76BFE99E07E
S31508002A3044480078042827D042480078424908705C
S31508002A400420404908703C48408800EBC0004049D3
S31508002A5001EB4000008A3D4931F910003A49C86146
S31508002A603548408800EBC000394901EB40008088B2
S31508002A70364931F9100034494860084640684042F2
S31508002A8088600620FEF73EFE2C48007850B32A4898
S31508002A90408928B92848808910B92748C08908B3C9
S31508002AA029480078F8B92848C0692349498801EBBC
S31508002AB0C101274A02EB4101098A244A32F9111059
S31508002AC088424FD01C48408800EBC000204901EBE3
S31508002AD04000008A114631F910001B49C8610620DA
S31508002AE0FEF710FE3EE01848C0691349498801EB15
S31508002AF0C101174A02EB41018988144A32F91110BB
S31508002B0088422FD00C48408800EBC000104901EBE2
S31508002B1040008088114631F910000B494860064884
S31508002B20408800EBC0000A4901EB40008088114646
S31508002B3010E00000380E0020606100204E0C0020D6
S31508002B40350E00203C0E002040590020960D00202E
S31508002B507A61002031F910004042B04988600620A9
S31508002B60FEF7D0FDAE48808900280FD0AD48007822
S31508002B7014280BD01420AB490870002C06DBAA4891
S31508002B800078002802D10120FEF7BCFDA3E0A74883
S31508002B900078042831D0A5480078A0490870042098
S31508002BA0A24908709E48408800EBC000A04901EB86
S31508002BB0400080889F4931F9100098494860984834
S31508002BC0408800EBC0009A4901EB4000808899498B
S31508002BD031F910004042914988609148408800EBDD
S31508002BE0C000934901EB4000008A924931F9100070
S31508002BF08A49C8610620FEF785FD884840688849E5
S31508002C00498801EBC1018A4A02EB41018988894A50
S31508002C1032F9111088421DD08148408800EBC00067
S31508002C20834901EB40008088114631F910007B4941
S31508002C3048607B48408800EBC0007D4901EB4000B6
S31508002C408088114631F91000404274498860062090
S31508002C50FEF758FD7148C0697149498801EBC10101
S31508002C60734A02EB4101098A724A32F91110884205
S31508002C700FD06B48408800EBC0006D4901EB40005F
S31508002C80008A114631F910006449C8610620FEF72A
S31508002C9039FD64480078152814D06148C08970B198
S31508002CA06148007810B10020FEF72CFD1520009031
S31508002CB000231A466946604800680CF0DFFA1520BA
S31508002CC0584908705848007828B95548408910B1BD
S31508002CD00120FEF717FD5248808920BB5048C0895D
S31508002CE008BB4F484089F0B94F48007830B14D4885
S31508002CF00078142802D014204A4908704A480078F7
S31508002D0088B94848007815280DD015204549087017
S31508002D1009E04548007830B1414840880A2802D180
S31508002D200020FEF7EFFC002C10DC444800686430F5
S31508002D30A8424ED2414805600520009000231A4655
S31508002D4069463F4800680CF099FA42E03448408AE0
S31508002D50C01CA04210DD394800689630A84238D217
S31508002D60364805600420009000231A466946344810
S31508002D7000680CF083FA2CE02948408AC01CA0425F
S31508002D8011D12E48006800F5C870A84221D22B48F8
S31508002D9005600820009000231A46694628480068FE
S31508002DA00CF06CFA15E01E48408A1030A04210DD7F
S31508002DB02248006800F5487085420AD91F48056010
S31508002DC00320009000231A4669461D4800680CF047
S31508002DD055FA1E2C21D11348007815281DD0152028
S31508002DE0104908700E48C08928B90D48808910B95D
S31508002DF00B48408988B100231A460A490E480068DC
S31508002E000CF03CFA0020FEF77DFC06E00548007849
S31508002E10152802D015200349087038BD40590020EE
S31508002E2060610020350E00204E0C00203C0E00206C
S31508002E307A610020960D0020900E0020380E0020A2
S31508002E40940E00200246002011B9094B1A600DE0C5
S31508002E50074B1B68934201D9054B1A60044B1B6844
S31508002E60D31A8B4202D9024B1A6001207047000020
S31508002E70B00E0020024609B90948026008480068F1
S31508002E80002803DA6FF00600054B1860044800684E
S31508002E901E2802DD1E20024B186001480068704794
S31508002EA0A400002010B5044614B907F031FF0DE060
S31508002EB0012C02D107F0F4FE08E0022C02D107F03B
S31508002EC03DFF03E0032C01D107F02CFF10BD0000E5
S31508002ED070B52DED048B21480078401C1F490870F9
S31508002EE00878C11700EB91718910A0EB81011B4A84
S31508002EF011701B480068002807DA19480088C04383
S31508002F001849127821F8120015E0154800680DF0E6
S31508002F102EF841EC190B9FED140B53EC102B0DF00A
S31508002F208DF841EC180B0CF0F5FF81B20D480B4AF1
S31508002F30127820F812100B4800880A494988084474
S31508002F400849898808440749C9880844242190FB08
S31508002F50F1F52C46A0B2BDEC048B70BD600C0020C8
S31508002F6014110020580C00200E2DB29DEFA7F03F3B
S31508002F7000BFFEE770B504460E4696B9122C2ED150
S31508002F80174840880A282ADA1549488801F0ECF9D2
S31508002F900546012D23D112494888002102F07EF901
S31508002FA01DE0072C06D10E4988780022314600F02C
S31508002FB02DFD07E0092C05D10949887801223146FB
S31508002FC000F024FD5CB10649488801F0CDF90546B4
S31508002FD0012D04D102494888314602F05FF970BDD7
S31508002FE06061002010B540210A4807F0D3FE202171
S31508002FF0084807F0CFFE00F07FF84021054807F0A3
S31508003000C7FE00F079F82021024807F0C1FE00F05B
S3150800301073F810BD0008014010B54021074807F0B5
S31508003020B7FE00F069F82021044807F0B3FE00F067
S3150800303063F84021014807F0ADFE10BD00080140C5
S3150800304070B52021124807F0A3FE09F085FA00F0B2
S3150800305053F820210E4807F09DFE00F04DF803F0C6
S315080030602BF908B1012408E005E0681CC5B2F02D6B
S3150800307001DD002400E0F8E700BF09F07DFA202111
S31508003080034807F085FE00F037F8204670BD0000BB
S315080030900008014070B506460C461546FFF7A2FF24
S315080030A0242003F00BFAFFF7CBFF304603F006FAAD
S315080030B0FFF7C6FF204603F001FAFFF7C1FF2846CF
S315080030C003F0FCF9FFF7BCFFFFF7A6FF70BD000091
S315080030D02DE9F04180460D461446064820F815406D
S315080030E0E7B226123A4631462846FFF7D3FFBDE82F
S315080030F0F0810000620C0020302000BF011EA0F104
S315080031000102D0B2FAD17047F8B506460D46002D31
S315080031107ED0B6FBF5F005FB106000287FD107F0DE
S31508003120EDFD012806D107F0C7FD08B9102402E015
S31508003130112400E000243A480078A0426FD0102CF1
S3150800314023D14FF6FF7301224FF4FA71002000F0E5
S31508003150ABF84FF6FF7301220021104600F0A4F8E1
S315080031600620009000231A4669462E4800680CF08F
S3150800317085F80120009000231A4669462A48006807
S315080031800CF07CF80020009047E0112C22D14FF675
S31508003190FF7301221946002000F086F84FF6FF73E8
S315080031A001220021104600F07FF806200090002337
S315080031B01A4669461B4800680CF060F80120009022
S315080031C000231A466946184800680CF057F800208C
S315080031D0009022E00CBB002301221946184600F095
S315080031E063F8002301221946104600F05DF8012015
S315080031F0009000231A4669460A4800680CF03EF813
S315080032000120009000231A4669460748006800E036
S3150800321005E00CF033F80020009001480470F8BD72
S31508003220680E0020980E0020940E0020014600200B
S3150800323020292BD00DDC052922D005DCD9B101299E
S315080032401BD002292DD11AE006291BD0102928D116
S315080032501AE0B1F5CC6F23D006DCB1F5807F17D024
S31508003260B1F5007F1DD115E0B1F5805F14D0B1F539
S31508003270005F16D112E0002014E0052012E011E0EC
S3150800328013200FE006200DE007200BE0082009E0D8
S31508003290092007E00A2005E00B2003E00C2001E0E6
S315080032A000E000BF00BF704730B5022800DD30BD22
S315080032B01A4C04EB0014247B944200DD3BB9174CEE
S315080032C004EB00142273154C04EB0014E381134C31
S315080032D004EB001404EB8204618031B900240F4D1D
S315080032E005EB001505F8224015E04FF6FF74A142DC
S315080032F006D10124094D05EB001505F822400AE020
S315080033000224064D05EB001505F822400024034D5E
S3150800331005EB00156C8100BFC9E7000010580020B6
S3150800332070B506460D4605B970BD96FBF5F005FB6A
S31508003330106000287ED1002492E04C4800EB04106F
S31508003340C08928B90020494901EB041108732EE009
S31508003350464800EB0410C0894FF6FF71884226DA0A
S31508003360424800EB0410C089A84209DB3F4800EB3D
S315080033700410C089401B3D4901EB0411C88116E0C1
S3150800338000203A4901EB0411C881384800EB0410C3
S31508003390007B60B10020354901EB041108723349FE
S315080033A001EB041108730021204607F0D3FE2F48CD
S315080033B000EB04102D4901EB0411097B10F82100DC
S315080033C0022826D1294901EB04110872274800EB87
S315080033D0041040892844254901EB041148812348F3
S315080033E000EB0410214901EB0411097B00EB810075
S315080033F040881E4901EB0411498988422EDC0020C9
S315080034001A4901EB041148810221204607F0A2FE61
S3150800341024E0164800EB0410144901EB0411097B5B
S3150800342010F82100114901EB0411097A884215D0D8
S315080034300E4800E017E000EB04100C4901EB0411FC
S31508003440097B10F82100094901EB041108720748A5
S3150800345000EB0410017A204607F07CFE601CC4B21B
S31508003460022CFFF66AAF00BF5EE700001058002086
S3150800347030B501460020002301B90121032900DDEA
S315080034800421002209E002EB42040C44641E054DA7
S3150800349035F814402344541CE2B2102AF3DB180909
S315080034A030BD00000457002010B504F097FD002039
S315080034B00149086010BD00005C0E00202DE9F74F99
S315080034C02DED068B86B08B46904600200590002190
S315080034D09F4809F0DBFB642005F036FF642005F001
S315080034E033FF002262210C9800F07AFA54210C98D6
S315080034F000F036FA049033210C9800F031FA814630
S31508003500049878B109F40040B0F5004F05D10022BF
S3150800351061210C9800F064FA04E0002260210C98FE
S3150800352000F05EFA05210C9800F01AFA0390039849
S31508003530C0F30E00874948810846428905210C9840
S3150800354000F04EFA05210C9800F00AFA039064225E
S3150800355020210C9800F044FA012211210C9800F061
S315080035603FFA7D48408800FB0BF040004FF47A7123
S3150800357090FBF1F000EB8000C000642190FBF1F0B5
S315080035807549898990FBF1F080B202905121029A1F
S315080035900C9800F025FA40460CF000FD9FED6F0BE5
S315080035A053EC102B0CF04AFD0CF0B4FC1FFA80FA11
S315080035B0012000EB4A0082B252210C9800F010FA62
S315080035C009F40040B0F5004F05D1002260210C989F
S315080035D000F006FA04E0002261210C9800F000FAD7
S315080035E040460CF0DBFC41EC190B9FED5E0B53ECEF
S315080035F0102B0CF023FD41EC180B0CF05BFC019032
S3150800360005F0A2FE55210C9800F0AAF9044640469A
S3150800361005F09AFE55210C9800F0A2F90546404699
S315080036200CF0BCFC41EC1A0B9FED500B53EC102B25
S315080036300CF004FD41EC190B9FED4E0B53EC102BCF
S315080036400CF02CFA41EC180B0CF034FC019005F048
S315080036507BFE09F40040B0F5004F05D10022612138
S315080036600C9800F0BDF904E0002260210C9800F0E7
S31508003670B7F9002252210C9800F0B2F9AC420ADDE3
S31508003680601B43F6FF71884205DA01276019390481
S31508003690A1EB600628E0AC4211DA281BB0F5804F92
S315080036A00DDB012704F5803028444610B6F5803F27
S315080036B002DDA6F57F46FF3EC6F5803614E0AC422D
S315080036C00FDD601BB0F5804F0BDB002704F580305B
S315080036D028444610B6F5803F06DBA6F57F46FF3E32
S315080036E002E0002760194610C6F34F101949C88131
S315080036F00846408940EAC73048810846428905217C
S31508003700002000F06DF91348C2890721002000F057
S3150800371067F900226421104600F062F94FF4FA6056
S3150800372005F012FE00221146602002F069FE6420B0
S3150800373005F00AFE0121064809F0A8FA08F040FD3E
S3150800374001200590059806B0BDEC068BBDE8FE8FF6
S3150800375000040040620C0020306300209A99999971
S315080037609999B93F333333333333E33F9A99999968
S315080037709999C93F00000000000059401CB5012175
S31508003780274805F0B9FA01212548401C05F0B4FA86
S3150800379000208DF8040028208DF8050010208DF8EB
S315080037A0060001208DF807000220009069461D4892
S315080037B007F0FDFA00208DF8040018208DF80500A2
S315080037C010208DF8060001208DF807000090694644
S315080037D0144807F0ECFA04208DF804008DF805006B
S315080037E010208DF8060001208DF807002020009093
S315080037F069460D4807F0DBFA04208DF804008DF8B9
S31508003800050010208DF806004020009069460648FD
S3150800381007F0CDFA0221034807F0BCFA1CBD0000E8
S3150800382002001800000C0140000801401FB50121E4
S31508003830474805F061FA01214548401C05F05CFA45
S3150800384001214FF4C01005F057FA00208DF80C003E
S3150800385028208DF80D0010208DF80E0001208DF817
S315080038600F000220029002A93A4807F0A0FA0020A9
S315080038708DF80C0018208DF80D0010208DF80E001C
S3150800388001208DF80F00029002A9324807F08FFA3E
S3150800389000208DF80C0028208DF80D0008208DF8E2
S315080038A00E0001208DF80F002020029002A92A4858
S315080038B007F07DFA28208DF80D0008208DF80E00F7
S315080038C000208DF80E004020029002A9224807F039
S315080038D06EFA01208DF80F0000208DF80C002820C4
S315080038E08DF80D0008208DF80E008020029002A9A0
S315080038F0194807F05CFA012115480A3005F0FCF969
S31508003900684608F09DFE00208DF8000001208DF81D
S31508003910010003208DF8020000208DF803008DF8C1
S31508003920040001208DF805008DF806008DF80700C3
S3150800393069460A4808F0A2FE0121084808F08BFEED
S315080039400021084600F00CF80446204604B010BDD5
S3150800395002001800000C0140000801400030014038
S3150800396070B506460C46204602F0B0FC05460248ED
S3150800397020F81450284670BD620C002010B5FFF7D9
S31508003980FDFE002262211220FFF7A2FB0022612120
S315080039901220FFF79DFB002211466020FFF77AFBF5
S315080039A04EF203000C49A1F866000846B0F86620F6
S315080039B033211220FFF78CFB002264211220FFF727
S315080039C087FB642005F0C0FC0221044807F0E0F9F3
S315080039D0FFF72CFF10BD0000620C0020000C014010
S315080039E02DE9F04180460D461446064820F8154054
S315080039F0E7B226123A463146284602F001FDBDE8EE
S31508003A00F0810000620C002000BFFEE7F0B5034617
S31508003A100024052B7ADD0A2B78DA002976D00129CD
S31508003A2075D1002A55D1FE48408800EBC000FD4DEF
S31508003A3005EB4000408828BBF948408800EBC000E9
S31508003A4005EB4000008A401CF54D6D8805EBC50561
S31508003A50F44E06EB45052882F148408800EBC00085
S31508003A60354605EB4000008A0B2590FBF5F605FB6D
S31508003A701600EB4D6D8805EBC505EA4E06EB4505C8
S31508003A802882A6E0E648408800EBC000E54D05EB35
S31508003A9040008088401CE24D6D8805EBC505E14E67
S31508003AA006EB4505A880DE48408800EBC000354691
S31508003AB005EB40008088122590FBF5F605FB1600FD
S31508003AC0D74D6D8805EBC505D64E06EB4505A8808E
S31508003AD07FE0012A7DD1D248408800EBC000D14D55
S31508003AE005EB40004088D0BBCD48408800EBC000BD
S31508003AF005EB4000008A58B90A20C94D6D8805EBC8
S31508003B00C505C84E06EB4505288262E089E089E0CE
S31508003B10C348408800EBC000C24D05EB4000008A50
S31508003B20401EBF4D6D8805EBC505BE4E06EB450527
S31508003B302882BB48408800EBC000354605EB4000AC
S31508003B40008A0B2590FBF5F605FB1600B44D6D882B
S31508003B5005EBC505B34E06EB4505288239E0FFE7B8
S31508003B60AF48408800EBC000AE4D05EB40008088AA
S31508003B7048B91120AA4D6D8805EBC505A94E06EB77
S31508003B804505A88025E0A648408800EBC000A54D5D
S31508003B9005EB40008088401EA14D6D8805EBC505E4
S31508003BA0A04E06EB4505A8809D48408800EBC0005E
S31508003BB0354605EB40008088122590FBF5F605FB97
S31508003BC01600974D6D8805EBC505964E06EB45051F
S31508003BD0A8809348408800EBC000924D05EB400052
S31508003BE0C0888F4D6D8805EBC5058E4E06EB4505DD
S31508003BF0AD888D4E36F81550A84212DD88484088A3
S31508003C0000EBC000874D05EB40008088354635F847
S31508003C101000834D6D8805EBC505824E06EB4505FC
S31508003C20E88067E302297DD1002A7CD17C48408858
S31508003C3000EBC0007B4D05EB40004088F0BB7848A0
S31508003C40408800EBC00005EB4000C089401C744D5D
S31508003C506D8805EBC505734E06EB4505E88170488A
S31508003C60408800EBC000354605EB4000C0891325A7
S31508003C7090FBF5F605FB1600694D6D8805EBC50545
S31508003C80684E06EB4505E8816548408800EBC000AC
S31508003C90354605EB4000C089072807DA0720604D3E
S31508003CA06D8805EBC50506EB4505E8815C48408847
S31508003CB000EBC0005B4D05EB400000E021E0C08949
S31508003CC0574D6D8805EBC505564E06EB4505AD887F
S31508003CD0554E36F81550A842A3DD5148408800EBEA
S31508003CE0C000504D05EB40008088354635F8100079
S31508003CF04B4D6D8805EBC5054A4E06EB4505E88133
S31508003D00F8E24748408800EBC000464D05EB400006
S31508003D104088032850D14248408800EBC00005EB94
S31508003D20400001E0D2E193E00089401C3C4D6D88DB
S31508003D3005EBC5053B4E06EB45052881384D6D88D4
S31508003D4005EBC50506EB45052889C51700EB55752E
S31508003D50ED10A0EBC505324E768806EBC606314F48
S31508003D6007EB460635812E48408800EBC0003D46E5
S31508003D7005EB400000892A4D6D8805EBC5053E46D2
S31508003D8006EB4505AD88284E36F81550A842B7DD2E
S31508003D902348408800EBC0003D4605EB400080887C
S31508003DA0354635F810001E4D6D8805EBC5053E46AF
S31508003DB006EB450528819DE21948408800EBC000BE
S31508003DC0184D05EB4000C088401C154D6D8805EB65
S31508003DD0C505144E06EB4505E8801148408800EBFA
S31508003DE0C000354605EB4000C088132590FBF5F664
S31508003DF005FB16000A4D6D8805EBC505094E06EB51
S31508003E004505E8800648408800EBC000354605EBC6
S31508003E104000C088024D6D8805EBC50506E0000028
S31508003E20606100207A610020BE0D002006EB450582
S31508003E30AD88FE4E36F81550A842BCDD0020FC4D74
S31508003E406D8805EBC505FB4E06EB4505E88051E296
S31508003E50012AB0D1F648408800EBC000F54D05EBC5
S31508003E6040004088F0BBF248408800EBC00005EBF4
S31508003E704000C089072809DC1220ED4D6D8805EB46
S31508003E80C505EC4E06EB4505E88125E0E84840887F
S31508003E9000EBC000E74D05EB4000C089401EE44D2D
S31508003EA06D8805EBC505E34E06EB4505E881E04858
S31508003EB0408800EBC000354605EB4000C089132555
S31508003EC090FBF5F605FB1600D94D6D8805EBC50583
S31508003ED0D84E06EB4505E881D548408800EBC0007A
S31508003EE0D44D00E023E005EB4000C089D04D6D8835
S31508003EF005EBC505CF4E06EB4505AD88CB4E36F826
S31508003F001550A842A3DDCA48408800EBC000C94D39
S31508003F1005EB40008088354635F81000C44D6D889D
S31508003F2005EBC505C34E06EB4505E881E2E1C04849
S31508003F30408800EBC000BF4D05EB400040880328D1
S31508003F4061D1BB48408800EBC00005EB4000008902
S31508003F50002809DC0720B64D6D8805EBC505B54E6A
S31508003F6006EB4505288125E0B148408800EBC000EE
S31508003F70B04D05EB40000089401EAD4D6D8805EB40
S31508003F80C505AC4E06EB45052881A94D6D8805EBA0
S31508003F90C50506EB45052889C51700EB5575ED10CF
S31508003FA0A0EBC505A24E768806EBC606A14F07EB21
S31508003FB0460635819E48408800EBC0009D4D05EBBE
S31508003FC0400000899A4D6D8805EBC505994E06EBAC
S31508003FD04505AD88954E36F81550A842A6DD944895
S31508003FE0408800EBC000934D05EB400080883546BD
S31508003FF035F810008E4D6D8805EBC5058D4E06EB20
S315080040004505288176E18A48408800EBC000894D3D
S3150800401005EB4000C088002809DC1220844D6D8815
S3150800402005EBC505834E06EB4505E88025E0804887
S31508004030408800EBC0007F4D05EB4000C088401E5D
S315080040407B4D6D8805EBC5057A4E06EB4505E88080
S315080040507748408800EBC000354605EB4000C0882D
S31508004060132590FBF5F605FB1600714D6D8805EBDB
S31508004070C505704E06EB4505E8806D48408800EB9F
S31508004080C0006C4D05EB4000C088694D6D8805EB96
S31508004090C505684E06EB4505AD88644E36F81550DD
S315080040A0A842AFDD6248408800EBC000614D05EBD1
S315080040B040008088354635F810005D4D6D8805EB63
S315080040C0C5055C4E06EB4505E88013E1032963D177
S315080040D032BB5748408800EBC000564D05EB400000
S315080040E04088401C524D6D8805EBC505514E06EBC0
S315080040F0450568804E4D6D8805EBC50506EB4505FB
S315080041006888C51700EB9575AD10A0EB8505484E78
S31508004110768806EBC606474F07EB46067580E9E044
S31508004120012AD2D14248408800EBC000414D05EB38
S3150800413040004088002825DD3D48408800EBC00047
S3150800414005EB40004088401E394D6D8805EBC505D6
S31508004150384E06EB45056880354D6D8805EBC50577
S3150800416006EB45056888C51700EB9575AD10A0EBFD
S3150800417085052F4E768806EBC6062E4F07EB4606B4
S315080041807580B7E003202A4D6D8805EBC505294ED5
S3150800419006EB45056880ADE0042957D132BB2448B3
S315080041A0408800EBC000234D05EB400040890A30EB
S315080041B000B21F4D6D8805EBC5051E4E06EB45057D
S315080041C068811B48408800EBC000354605EB400077
S315080041D0B0F90A00B0F5B47F07DD0A20144D6D88E2
S315080041E005EBC50506EB4505688183E0012A2CD158
S315080041F00F48408800EBC0000E4D05EB4000408993
S315080042000A3800B20A4D6D8805EBC505094E06EB5E
S31508004210450568810648408800EBC000354605EB31
S315080042204000B0F90A000A2864DA05E0BE0D00204D
S31508004230606100207A6100204FF4B4702F4D6D88BC
S3150800424005EBC50506EB4505688153E0052951D1FF
S315080042503ABB2A48408800EBC000294D05EB4000D0
S3150800426080890A3800B2254D6D8805EBC505244EB0
S3150800427006EB4505A8812148408800EBC000354675
S3150800428005EB4000B0F90C0010F5B47F32DA6FF098
S3150800429009001A4D6D8805EBC50506EB4505A8818D
S315080042A028E0012A26D11548408800EBC000144DA5
S315080042B005EB400080890A3000B2104D6D8805EB89
S315080042C0C5050F4E06EB4505A8810C48408800EB4E
S315080042D0C000354605EB4000B0F90C0010F10A0F96
S315080042E008DD4FF69860054D6D8805EBC50506EBAC
S315080042F04505A88101242046F0BD00006061002024
S315080043007A6100200446022C01D104F0C3FE002085
S31508004310FDF7F8F972B60AF025FE62B602200AF031
S315080043208DFA00F089FF05F061F804E002210248E1
S3150800433000680AF05AFEF9E7700E002002460020CF
S3150800434019B1084B1B68934202D9064B1A6007E05D
S31508004350044B1B68D31A8B4202D9024B1A60012000
S3150800436070470000EC0D002070B5044600250A2CA5
S315080043707EDA04EBC400AA4931F81000A04229D01D
S3150800438004EBC40021F810400F2004EBC401A44A32
S3150800439002EB4101C8811E2004EBC40102EB410176
S315080043A048816FF0950004EBC40102EB4101888156
S315080043B00F2004EBC40102EB4101C880072004EB7F
S315080043C0C40102EB41010881042004EBC40102EB9D
S315080043D04101088200209349487004EBC4009049C3
S315080043E001EB40004088032803D101208D4908705D
S315080043F007E004EBC4008A4901EB4000807889494C
S31508004400087004EBC400864901EB4000B0F90A00C5
S315080044108449C86004EBC400814901EB4000B0F947
S315080044200C008049086104EBC4007D4901EB40009B
S315080044304088032857D104EBC40001EB40000089EB
S3150800444004EBC401764A02EB41018988764A32F8C0
S315080044501110884210DD04EBC400714901EB4000DD
S315080044608088114631F8100004EBC4016C4A00E05C
S31508004470D4E002EB410108816C48C08B00EE100ABB
S31508004480B8EE400ADFED6A0A20EE200A654880ED9C
S31508004490050A04EBC400624901EB40000089634940
S315080044A031F8100000EE100AB8EE400ADFED600A97
S315080044B020EE200A5B4880ED060A04EBC400584942
S315080044C001EB40000089072864DD5848C08900EEE2
S315080044D0100AB8EE400ADFED560A20EE200A5148C7
S315080044E080ED060A56E004EBC4004D4901EB400096
S315080044F0408838BB04EBC40001EB4000C0894B4937
S3150800450031F8100000EE100AB8EE400ADFED480A4E
S3150800451020EE200A434880ED050A04EBC400404912
S3150800452001EB4000C089414931F8100000EE100A3D
S31508004530B8EE400ADFED3F0A20EE200A394880ED42
S31508004540060A27E004EBC400354901EB4000C088A1
S31508004550364931F8100000EE100AB8EE400ADFEDD1
S31508004560340A20EE200A2F4880ED050A04EBC40021
S315080045702B4901EB4000C0882C4931F8100000EEA9
S31508004580100AB8EE400ADFED2B0A20EE200A25486D
S3150800459080ED060A04EBC400214901EB4000008ABD
S315080045A00A2806DD0A2004EBC4011D4A02EB410174
S315080045B0088204EBC4001A4901EB400080881128E0
S315080045C006DD112004EBC401154A02EB410188807F
S315080045D004EBC400124901EB40008088164931F902
S315080045E010001049486004EBC4000D4901EB400077
S315080045F08088114931F9100040420A49886004EB65
S31508004600C400074901EB4000008A0B4931F9100044
S315080046100449C8610620FDF775F80125284670BDCE
S315080046207A61002040590020BE0D00206C0D002044
S31508004630CDCCCC3D8FC2753D960D002070B5044695
S31508004640072C00DD70BD00F0E3FD0AF0FDFF05460E
S315080046500021FDF78DFB1CB9002000F019FE3EE095
S31508004660012C0CD100211220FEF784FC06F072FB07
S3150800467005462A462021022004F0F4FE2FE0032CEA
S3150800468003D1002002F0C4FC29E0022C04D1002149
S31508004690022000F015FF22E0062C05D1002140F685
S315080046A0E44000F0CFFD1AE0042C0CD100210420D0
S315080046B000F006FF06F04EFB05462A46202102209A
S315080046C004F0D0FE0BE0052C04D10021052000F0F3
S315080046D0F7FE04E0072C02D1002000F0CFFE00BF51
S315080046E0B0E7000010B506F0E9FB012004F02CFE47
S315080046F002210A4806F04EFB022004F025FE00209F
S3150800470006F042FE002260211046FFF769F9642090
S3150800471004F01AFE07F054FD10BD0000000C01401D
S3150800472010B5002408F022F9754840880A2802DAEC
S315080047307348448800E0002400207249487004EB5E
S31508004740C400714901EB40004088032803D10120C9
S315080047506C49087007E004EBC4006B4901EB4000A4
S3150800476080786849087004EBC400674901EB40008B
S315080047708088112806DD112004EBC401624A02EB89
S315080047804101888004EBC4005F4901EB4000008AC0
S315080047900A2806DD0A2004EBC4015B4A02EB410144
S315080047A0088204EBC400584901EB40008088574949
S315080047B031F910005349486008464068404288600D
S315080047C004EBC400504901EB4000008A4F4931F917
S315080047D010004C49C86104EBC4004B4901EB40008A
S315080047E0B0F90A004749C86004EBC400464901EB22
S315080047F04000B0F90C004349086104EBC400424983
S3150800480001EB40004088032836D14148C08B00EEB2
S31508004810100AB8EE400ADFED3F0A20EE200A3948B2
S3150800482080ED050A04EBC40001EB40000089072867
S315080048300DDD3748C08900EE100AB8EE400ADFEDF4
S31508004840350A20EE200A2F4880ED060A53E004EBCD
S31508004850C4002D4901EB400000892D4931F81000AC
S3150800486000EE100AB8EE400ADFED2A0A20EE200A0A
S31508004870244880ED060A3EE004EBC400224901EB19
S3150800488040004088D8B904EBC40001EB4000C08959
S315080048901F4931F8100000EE100AB8EE400ADFEDA5
S315080048A01D0A20EE200A174880ED050A90ED050A34
S315080048B0DFED190A20EE200A80ED060A1BE004EB5C
S315080048C0C400114901EB4000C088114931F81000B5
S315080048D000EE100AB8EE400ADFED0E0A20EE200AB6
S315080048E0084880ED050A90ED050ADFED0B0A20EE73
S315080048F0200A80ED060A034808F03BFC10BD0000BC
S3150800490060610020405900207A610020960D002041
S315080049106C0D0020CDCCCC3D9A99193F30B52DEDC4
S31508004920068B81B004460D4620460BF037FB41EC5A
S31508004930180B9FEDFE0B53EC102B0BF07DFC25D2CC
S31508004940FC480088401CFB49088008460088142853
S315080049501BDD052000900020FCF7D4FEF6494888A8
S31508004960FFF702FD00231A466946F44800680AF074
S3150800497085FC0020009000231A466946F048006826
S315080049800AF07CFC0020EF49088089E30020E94909
S315080049900880E948408800EBC000EB4901EB40007D
S315080049A0408803287ED1E448408960B1012100206F
S315080049B0FEF760FAE049498A0931884203DCDE4895
S315080049C0808A0028E1D1E148C08BA0423FDAE0485E
S315080049D0007805283AD0DE4800780628FAD0DD485F
S315080049E00088401CDB4908800846008823282DDDFE
S315080049F000200880D648C068D549096949428842D6
S31508004A0003DD0620D249087002E00520D049087067
S31508004A10C948408800EBC000CB4901EB4000008A3A
S31508004A20CD4931F91000CA494860C348408800EBAF
S31508004A30C000C54901EB4000008AC74931F910009A
S31508004A404042C34988600720FCF75CFEA6E0BA48E6
S31508004A50408800EBC000BC4901EB40000089BB4917
S31508004A6031F81000A04269DCB9480078002864D003
S31508004A70B8480088401CB749088008460088282896
S31508004A805BDD00200880B2490870AB48408800EB1F
S31508004A90C000AD4901EB40008088AF4931F91000EC
S31508004AA0AB4900E0E0E04860A348408800EBC0005E
S31508004AB0A54901EB40008088A74931F9100040421A
S31508004AC0A34988609C48408800EBC0009E4901EBDA
S31508004AD04000008AA04931F910009D49C8619B48E9
S31508004AE0C08B00EE100AB8EE400ADFED9C0A20EEF5
S31508004AF0200A084680ED050A90ED050ADFED980ABA
S31508004B0020EE200A80ED060A8B48408800EBC0009C
S31508004B108D4901EB4000B0F90A008D49C860864806
S31508004B20408800EBC000884901EB4000B0F90C0052
S31508004B30874908610720FCF7E5FD2FE084480078DF
S31508004B4001282BD083480088401C824908800846E3
S31508004B500088282822DD0020088001207C4908706A
S31508004B607548408800EBC000774901EB4000808813
S31508004B70794931F91000764948606F48408800EB5A
S31508004B80C000714901EB40008088734931F9100073
S31508004B9040426F4988600720FCF7B4FD6B49C88B13
S31508004BA00BF0FCF941EC1A0B9FED6E0B53EC102B36
S31508004BB00BF044FA41EC180B20460BF0EFF941ECE8
S31508004BC0190B53EC182B0BF037FB0AD25F48C08B36
S31508004BD0A04207DA5B4800880A2802DD0020594906
S31508004BE008805DE25949C88B0BF0D8F941EC1A0BDD
S31508004BF09FED5E0B53EC102B0BF020FA41EC180BD3
S31508004C0020460BF0CBF941EC190B53EC182B0BF0A3
S31508004C1013FB14D24B480088401C4A4908800846B2
S31508004C2000880A28DDDD0020088002200090002385
S31508004C301A466946424800680AF020FB30E24148B5
S31508004C400088401C3F490880084600881428C8DDAB
S31508004C50002008800620009000231A466946384836
S31508004C6000680AF00BFB1BE23348408800EBC000E3
S31508004C70354901EB40004088002856D12E48408926
S31508004C8060B101210020FEF7F5F82B49498A093160
S31508004C90884203DC2848808A0028A2D12648408812
S31508004CA000EBC000284901EB4000C089274931F8CC
S31508004CB01000A04261DA2648007800285CD1254811
S31508004CC00088401C2349088008460088232853DDAD
S31508004CD0002008801E48C0681D4909694942884263
S31508004CE003DD06201A49087002E0052018490870F5
S31508004CF01148408800EBC000134901EB4000008AC8
S31508004D00154931F91000124948600B48408800EBF4
S31508004D10C0000D4901EB4000008A0F4931F9100027
S31508004D2040420B498860072024E039E10000000072
S31508004D3000404A403E0E002060610020900E002090
S31508004D40940E0020420E00207A6100206C0D00208F
S31508004D5040590020400E0020960D0020CDCCCC3DB9
S31508004D609A99193F9A9999999999E93FCDCCCCCCBA
S31508004D70CCCCEC3FFCF7C6FC91E0CB49498801EB6B
S31508004D80C101CA4A02EB4101C989C94A32F8110070
S31508004D900BF004F941EC1A0B9FEDC60B53EC102BE4
S31508004DA00BF04CF941EC180B20460BF0F7F841ECE8
S31508004DB0190B53EC182B0BF005F970D2BF48007885
S31508004DC0F0B3BF480088401CBD49088008460088E3
S31508004DD0282864DD00200880B8490870B248408851
S31508004DE000EBC000B14901EB40008088B54931F9B4
S31508004DF01000B2494860AC48408800EBC000AB4997
S31508004E0001EB40008088AF4931F910004042AB49B8
S31508004E108860A548408800EBC000A44901EB400023
S31508004E20008AA84931F91000A449C8619E484088FB
S31508004E3000EBC0009D4901EB4000C0899C4900E099
S31508004E402DE031F8100000EE100AB8EE400A5FEDCA
S31508004E503D0A20EE200A994880ED050A90ED050ADC
S31508004E605FED410A20EE200A80ED060A8E4840884A
S31508004E7000EBC0008D4901EB4000B0F90A008F49EC
S31508004E80C8608948408800EBC000884901EB4000AB
S31508004E90B0F90C00894908610720FCF733FC824900
S31508004EA0498801EBC101814A02EB4101C989804A5F
S31508004EB032F811000BF072F841EC1A0B1FED570B84
S31508004EC053EC102B0BF0BAF841EC180B20460BF0FC
S31508004ED065F841EC190B53EC182B0BF0ADF913D20E
S31508004EE07148408800EBC000704901EB4000C0895A
S31508004EF06F4931F81000A04207DA734800880A287B
S31508004F0002DD002070490880CAE06749498801EB3C
S31508004F10C101664A02EB4101C989654A32F81100A6
S31508004F200BF03CF841EC1A0B1FED700B53EC102BF1
S31508004F300BF084F841EC180B20460BF02FF841ECE7
S31508004F40190B53EC182B0BF077F914D25E4800882E
S31508004F50401C5D490880084600880A280ADD0020AA
S31508004F6008800220009000231A46694657480068C0
S31508004F700AF084F994E054480088401C5249088095
S31508004F800846008814280ADD0020088006200090BC
S31508004F9000231A4669464D4800680AF06FF97FE013
S31508004FA04149498801EBC101404A02EB4101C988E0
S31508004FB03F4A32F811000AF0F1FF41EC1A0B1FEDD7
S31508004FC0970B53EC102B0BF039F841EC180B2046D5
S31508004FD00AF0E4FF41EC190B53EC182B0BF02CF9F3
S31508004FE05ED23148408800EBC000304901EB4000F2
S31508004FF0C0882F4931F81000A04207DA32480088E5
S315080050000A284DDD00203049088049E026494988AC
S3150800501001EBC101254A02EB4101C988244A32F84D
S3150800502011000AF0BBFF41EC1A0B1FEDB00B53EC55
S31508005030102B0BF003F841EC180B20460AF0AEFFD4
S3150800504041EC190B53EC182B0BF0F6F814D21E484A
S315080050500088401C1C490880084600880A281FDD6D
S31508005060002008800220009000231A466946174847
S3150800507000680AF003F913E013480088401C124937
S3150800508008800846008814280ADD002008800620C3
S31508005090009000231A4669460C4800680AF0EEF8A4
S315080050A001B0BDEC068B30BD606100207A6100203E
S315080050B06C0D0020333333333333E33F405900203C
S315080050C0400E0020960D0020420E0020940E00206F
S315080050D010B5044614B900200C4908600B4800684E
S315080050E0642805D90020094908600920FCF70AFB4D
S315080050F007480088042807D00648007820B10348E6
S315080051000068401C0149086010BD00005C0E0020C4
S31508005110340C0020580E00202DE9F04104460D46B7
S31508005120114E671EB5FBF6F0401E00F0FF08012180
S315080051300E4803F0E1FD424639460D4807F080FD6A
S3150800514000210B4807F09DFD01221146084807F08B
S31508005150AEFD002204211D2006F0B2F90021044804
S3150800516007F094FDBDE8F08140420F0001001C00E5
S3150800517000040040704700002DE9F04104460D4642
S31508005180144F04EB4400C0EBC4100121C1EBC00668
S31508005190B5FBF7F0401E00F0FF080F4803F0ACFD22
S315080051A0424631460D4807F04BFD00210B4807F0F3
S315080051B068FD01221146094807F079FD00220421FD
S315080051C01E2006F07DF90021044807F05FFDBDE8C2
S315080051D0F081000040420F0002001C000008004059
S315080051E070B500240CE0002506E00020074901EB15
S315080051F0C5010855681CC5B2A02DF6DB601CC4B2F3
S31508005200082CF0DB002000F09BFB70BD3007002067
S3150800521000200CE0002106E00022064B03EBC10348
S315080052201A544A1CD1B2A029F6DB421CD0B208286F
S31508005230F0DB70473007002010B50021AE2000F0E3
S3150800524091FD10BD70B504460D4635B923460022BA
S315080052500221282002F006FE17E005F02DFD68B9A8
S315080052600A48007808B9012000E0002007490870BC
S31508005270084601782046FCF7F3FA06E000200349C1
S31508005280087000212046FCF7EBFA70BD4E0E002090
S3150800529010B5044605F090FF10BD00007CB5044625
S315080052A00D460A2C70DA84B9012010235CA200216D
S315080052B00090202000F01FFD012010235BA218217A
S315080052C00090482000F017FD89E0012C10D101203C
S315080052D0102357A200210090202000F00CFD012089
S315080052E0102352A218210090482000F004FD76E011
S315080052F0022C10D10120102350A20021009020205A
S3150800530000F0F9FC0120102348A21821009048203B
S3150800531000F0F1FC63E0032C10D1012010234AA20F
S3150800532000210090202000F0E6FC012010233FA277
S3150800533018210090482000F0DEFC50E0042C10D123
S315080053400120102343A200210090202000F0D3FC66
S315080053500120102335A218210090482000F0CBFC2C
S315080053603DE0052C11D1012010233DA2002100901B
S31508005370202000F0C0FC012010232CA21821009048
S31508005380482000F0B8FC2AE049E00120102337A2A3
S3150800539000210090202000F0AEFC012010235022AE
S315080053A000210090402000F055FB01201021621FCB
S315080053B00346CDE900100021482000F0E9FB012052
S315080053C010232AA200210090502000F094FC01200E
S315080053D0102316A218210090482000F08CFC01200A
S315080053E010234E2230210090442000F033FB012088
S315080053F010232E222B2100904C2000F02BFB01209D
S3150800540010231CA230210090502000F074FC04EBFD
S31508005410C401194A02EB4100294600F00BFD7CBD88
S3150800542020474F4C442030342000000072706D0035
S3150800543020474F4C442030362000000020424C556F
S31508005440452030342000000020424C554520303697
S3150800545020000000504154482046494C45000000B1
S315080054602020455850455254200000002020202076
S3150800547000000000636D00007A61002038B504461C
S3150800548044B90120182308A2194600901A2000F0F2
S3150800549032FC07E00120182306A2194600901A20BC
S315080054A000F029FC38BD00004C4F5720504F574597
S315080054B052000000504F574552204F464600000004
S315080054C07CB504460E46022C7ED10120182374A210
S315080054D000210090084600F00EFC7248408800EB58
S315080054E0C000714901EB4000408858B96D484088B2
S315080054F000EBC00001EB4000008A6C4931F810004F
S3150800550085B20BE06748408800EBC000664901EBAE
